:10000E001203941203FB8F28E528B4010CE5277028
:10001E00047F0180027F008F27E528B40207E4F5F4
:10002E0025F524F526E52864037023AD25FF12037C
:10003E001C7F051203C1AD247F0112031C7F051224
:10004E0003C1AD267F0212031C7F051203C1E528F2
:10005E00B40415E4FF12029C8F257F0112029C8FBF
:10006E00247F0212029C8F26E52575F00A84FD7C02
:10007E00007F011203E9E52575F00A84E5F0FD7CA9
:10008E00007F021203E97D0B7C007F031203E9E57A
:10009E002475F00A84FD7C007F041203E9E52475C3
:1000AE00F00A84E5F0FD7C007F051203E97D0B7CF0
:1000BE00007F061203E9E52675F00A84FD7C007FB9
:1000CE00071203E9E52675F00A84E5F0FD7C007F52
:0700DE00081203E902001102
:1002F500E52760220526E526C394644019E4F52622
:100305000524E524943C400EE4F5240525E52594D3
:070315003C4003E4F5252242
:03000B000200E50B
:1000E500C0E0C0F0C083C082C0D075D000C000C0E1
:0D00F50001C002C003C004C005C006C00762
:10010200758A66758CFC051FE51F7002051EC39477
:1001120014E51E94004009751E00751F001202634B
:100122000521E52170020520C39401E520940040D9
:10013200097520007521001203790523E523700259
:100142000522C3940AE52294004009752200752312
:04015200001202F5A0
:10015600D007D006D005D004D003D002D001D000FD
:0B016600D0D0D082D083D0F0D0E032A7
:1003C100AE071FEE600B007E027DC7DDFEDEFC8006
:0103D100EF3C
:0103D2002208
:0503FB00E4AF2BF52B1F
:0104000022D9
:1003AB00E4FF20B1010F20B0027F0220B2027F03D5
:0503BB0020B3027F04E5
:0103C000221A
:1002630085292A1203AB8F29E52AB40107E52970F2
:1002730003752B01E52AB40207E5297003752B02E8
:10028300E52AB40307E5297003752B03E52AB404B3
:0802930007E5297003752B0437
:01029B002240
:10035C0009090A0A0A0A0A0A0A0A0A0C123F065B67
:0C036C004F666D7D077F6F3F4001080168
:0903E900AE0574092FF8A60622E6
:1001FD00E4F580EF14B40800505490021575F00327
:10020D00A4C58325F0C5837302022D0202310202BB
:10021D003502023902023D02024502024D0202552B
:10022D00D2A4800ED2A48012D2A48016D2A4801A99
:10023D00C2A4D2A3D2A28016C2A4D2A3C2A2800EFF
:10024D00C2A4C2A3D2A28006C2A4C2A3C2A2741227
:06025D002DF8E6F58022F9
:1003790074092508F8E6FD7C00AF081201FD05089F
:0A038900E508C3940940037508015C
:010393002247
:100394005389F0438901D28CC28D758A66758CFCB1
:0703A400D2A9D2AFC2B922B9
:04031C008F2C8D2D68
:100320001203F27FA01202CC1203D3AF2C1202CC24
:0E0330001203D3AF2D1202CC1203D30200032E
:02029C008F2CA5
:10029E001203F27FA01202CC1203D3AF2C1202CCA7
:1002AE001203D31203F27FA11202CC1203D3120354
:0D02BE003E8F2D7F011203DF120003AF2DD4
:0102CB002210
:0903F200D2A1D2A0C2A0C2A12236
:07000300C2A0D2A1D2A0228D
:0202CC00AD077C
:1002CE00E4FB7E007480A803088006CEA2E713CE5E
:1002DE0013D8F8FFEDF582EF558224FF92A0D2A13C
:0602EE00C2A10BBB08DCFD
:0102F40022E7
:10033E00E4FFD2A0FED2A130A00DA80674800880E2
:0D034E0002C313D8FC4207C2A10EBE08E88E
:01035B00227F
:0A03DF00EF24FF92A0D2A1C2A122D8
:0B03D300D2A0D2A1A2A0E433FFC2A17F
:0103DE0022FC
:0300000002017189
:0C017100787FE4F6D8FD75812D0201B8FE
:10017D0002000EE493A3F8E493A34003F68001F28A
:10018D0008DFF48029E493A3F85407240CC8C33383
:10019D00C4540F4420C8834004F456800146F6DF52
:1001AD00E4800B010204081020408090035CE47E83
:1001BD00019360BCA3FF543F30E509541FFEE49347
:1001CD00A360010ECF54C025E060A840B8E493A30E
:1001DD00FAE493A3F8E493A3C8C582C8CAC583CA39
:1001ED00F0A3C8C582C8CAC583CADFE9DEE780BEF1
:010378000084
:00000001FF
