:1002FF00536176654E756D62657220204F4B0020FD
:0E030F00202020202020202020202020200040
:1000030012038CE522FB7A00750C057D017F01123A
:1000130003591201318F23E523B401111522E5227F
:10002300FB7A00750C057D017F01120359E523B4AA
:1000330002110522E522FB7A00750C057D017F0183
:10004300120359E52364037034AD22FF1202DD7BF2
:10005300FF7A0279FF7D017F021202BA7FFA12034F
:10006300A07FFA1203A07FFA1203A07FFA1203A063
:100073007BFF7A03790E7D017F021202BAE52364C6
:1000830004708FFF1202618F22EFFB7A00750C055B
:0A0093007D017F02120359020015DF
:1003A000AE071FEE600B007E027DC7DDFEDEFC8027
:0103B000EF5D
:0103B1002229
:0603B200C2A58F80D2A756
:0803B8007F027EEFDEFEDFFC98
:0103C000221A
:0A03D900C2A61203B2C2A70203B8C5
:10031D00CFCDCFCECCCE1200DC7C007D0A1200DC1E
:04032D00ED2430FF8C
:0A033100D2A61203B2C2A70203B85D
:10037600AE07BE0104ED148006BE0209ED243F441B
:0603860080FF1203D922E2
:10038C007F381203D97F0C1203D97F061203D97F51
:04039C00010203D97E
:0A03E300AC03120376AF04020331ED
:0602BA008B088A09890A85
:1002C000120376E4FDAB08AA09A90A8D82758300A2
:0C02D00012009DFF60061203310D80E952
:0102DC0022FF
:0C022E007F0AEA24FFFDE434FFFC7E00A0
:08023A008E0D8F0E8C0F8D104C
:100242007F017E00E4FBEBC39510E50F6480F87438
:0E0252008098500AAC0DAD0E1200CA0B80E869
:01026000227B
:040359008A0A8B0B76
:10035D00120376AA0CEAD39400400D12022EAC0AB9
:08036D00AD0B12031D1A80ED17
:010375002265
:10018300120376C3EA64809480400B7F2B12033101
:100193008A168B17800E7F2D120331C3E49BF5174C
:1001A300E49AF516AA15EAD39400400D12022EAC78
:0901B30016AD1712031D1A80EDB0
:0101BC002220
:0401BD008A1A8B1BF4
:1001C100120376AA1CEAD3940040297F1012023050
:1001D100AC1AAD1BCFCDCFCECCCE1200DCEF540F7D
:1001E100FEC3940AEE5004243080022437FF120328
:0401F100311A80D16E
:0101F50022E7
:0401F6008A1F8B20B1
:1001FA00120376AA21EAD394004028EA24FFFDE4F8
:10020A0034FFFC7F027E0012023AAC1FAD20CFCD34
:10021A00CFCECCCE1200DCEF54012430FF120331D2
:03022A001A80D265
:01022D0022AE
:0903F700D2A1D2A0C2A0C2A12231
:07040000C2A0D2A1D2A0228C
:02029100AD07B7
:10029300E4FB7E007480A803088006CEA2E713CE99
:1002A30013D8F8FFEDF582EF558224FF92A0D2A177
:0602B300C2A10BBB08DC38
:0102B9002222
:10033B00E4FFD2A0FED2A130A00DA80674800880E5
:0D034B0002C313D8FC4207C2A10EBE08E891
:010358002282
:0A03ED00EF24FF92A0D2A1C2A122CA
:0B03C100D2A0D2A1A2A0E433FFC2A191
:0103CC00220E
:0402DD008F088D09F0
:1002E1001203F77FA01202911203C1AF081202910B
:0E02F1001203C1AF091202911203C1020400F0
:020261008F0804
:100263001203F77FA01202911203C1AF0812029189
:100273001203C11203F77FA11202911203C11203E9
:0D0283003B8F097F011203ED120400AF094B
:01029000224B
:10013100E4F50820B1107F141203A030B1FD7F1443
:100141001203A075080120B0107F141203A030B073
:10015100FD7F141203A075080220B2107F14120350
:10016100A030B2FD7F141203A075080320B3107FE5
:10017100141203A030B3FD7F141203A0750804AF5D
:010181000875
:01018200225A
:030000000203CD2B
:0C03CD00787FE4F6D8FD75812302000360
:10009D00BB010CE58229F582E5833AF583E0225018
:1000AD0006E92582F8E622BBFE06E92582F8E22262
:0D00BD00E58229F582E5833AF583E493227C
:1000CA00EF8DF0A4A8F0CF8CF0A428CE8DF0A42E4A
:0200DA00FE2204
:1000DC00BC000BBE0029EF8DF084FFADF022E4CC08
:1000EC00F875F008EF2FFFEE33FEEC33FCEE9DECD1
:1000FC00984005FCEE9DFE0FD5F0E9E4CEFD22ED17
:10010C00F8F5F0EE8420D21CFEADF075F008EF2F60
:10011C00FFED33FD4007985006D5F0F222C398FD51
:05012C000FD5F0EA22EE
:00000001FF
