:10030B0050617373776F72643A00537461747573D1
:10031B003A004F4B21004E4F21002020202020205F
:10032B0020202020202020202020200042414E474A
:10033B002042414E4742414E47212121002020209F
:0E034B00202020202020202020202020200004
:10014D001204AB7BFF7A03790B7D017F011204371B
:10015D007BFF7A0379157D017F02120437E4F511D7
:10016D00F512F516F5171200038F15E5157003023C
:10017D000229D3940B4003020229E515940A50730A
:10018D00C3E5129404E5119400400302021BAE1363
:10019D00AF147C007D0A1202A48E138F14E5157521
:1001AD00F00A84E5F02514F514E43513F513E51282
:1001BD00640345117033E514B4D219E513B4041476
:1001CD007BFF7A03791D7D087F02120437E4F51653
:1001DD00F51780157BFF7A0379217D087F021204C4
:1001ED00370517E517700205160512E512701F0584
:1001FD0011801BE515B40B16E4F513F514F511F587
:10020D00127BFF7A0379257D087F02120437750C66
:10021D0004AB14AA137D0A7F01120478C3E5179469
:10022D0003E516940050030201737BFF7A037937BF
:10023D007D017F011204377BFF7A0379377D017FC2
:10024D00021204377FE81204BF7BFF7A0379487DE1
:10025D00017F011204377BFF7A0379487D017F020C
:0A026D001204377FE81204BF80C0BE
:1004BF00AE071FEE600B007E027DC7DDFEDEFC8007
:0104CF00EF3D
:0104D0002209
:0604D100C2A58F80D2A736
:0804D7007F027EEFDEFEDFFC78
:0104DF0022FA
:0A04EC00C2A61204D1C2A70204D771
:10045A00CFCDCFCECCCE1202B67C007D0A1202B628
:04046A00ED2430FF4E
:0A046E00D2A61204D1C2A70204D7DF
:10049500AE07BE0104ED148006BE0209ED243F44FB
:0604A50080FF1204EC22AE
:1004AB007F381204EC7F0C1204EC7F061204EC7FF5
:0404BB00010204EC4A
:0A04F600AC03120495AF0402046E7B
:060437008B088A09890A06
:10043D00120495E4FDAB08AA09A90A8D8275830003
:0C044D00120277FF600612046E0D80E9B9
:010459002280
:0C0404007F0AEA24FFFDE434FFFC7E00C8
:080410008E0D8F0E8C0F8D1074
:100418007F017E00E4FBEBC39510E50F6480F87460
:0E0428008098500AAC0DAD0E1202A40B80E8B5
:0104360022A3
:040478008A0A8B0B56
:10047C00120495AA0CEAD39400400D120404AC0AA1
:08048C00AD0B12045A1A80EDB9
:010494002245
:10035900120495C3EA64809480400B7F2B12046ECB
:100369008A1D8B1E800E7F2D12046EC3E49BF51E21
:10037900E49AF51DAA1CEAD39400400D120404ACBA
:090389001DAD1E12045A1A80ED8C
:010392002248
:040393008A218B220E
:10039700120495AA23EAD3940040297F1012040679
:1003A700AC21AD22CFCDCFCECCCE1202B6EF540FBB
:1003B700FEC3940AEE5004243080022437FF12044F
:0403C7006E1A80D159
:0103CB00220F
:0403CC008A268B27CB
:1003D000120495AA28EAD394004028EA24FFFDE4F9
:1003E00034FFFC7F027E00120410AC26AD27CFCD77
:1003F000CFCECCCE1202B6EF54012430FF12046EE1
:030400001A80D28D
:0104030022D6
:10000300E4F5087590FFC2932097107F141204BF84
:100013003097FD7F141204BF7508012096107F14DA
:100023001204BF3096FD7F141204BF750805209596
:10003300107F141204BF3095FD7F141204BF75089E
:10004300092094107F141204BF3094FD7F1412040E
:10005300BF75080D7590FFC2922097107F1412048C
:10006300BF3097FD7F141204BF7508022096107FDE
:10007300141204BF3096FD7F141204BF75080620C6
:1000830095107F141204BF3095FD7F141204BF75C1
:10009300080A2094107F141204BF3094FD7F1412B9
:1000A30004BF75080E7590FFC2912097107F14123C
:1000B30004BF3097FD7F141204BF75080320961008
:1000C3007F141204BF3096FD7F141204BF75080716
:1000D3002095107F141204BF3095FD7F141204BFC6
:1000E30075080B2094107F141204BF3094FD7F1405
:1000F3001204BF75080F7590FFC2902097107F14EC
:100103001204BF3097FD7F141204BF7508042096B4
:10011300107F141204BF3096FD7F141204BF7508BC
:10012300082095107F141204BF3095FD7F1412042C
:10013300BF75080C2094107F141204BF3094FD7F08
:09014300141204BF750810AF0886
:01014C002290
:030000000204E017
:0C04E000787FE4F6D8FD75812802014DFC
:10027700BB010CE58229F582E5833AF583E022503C
:1002870006E92582F8E622BBFE06E92582F8E22286
:0D029700E58229F582E5833AF583E49322A0
:1002A400EF8DF0A4A8F0CF8CF0A428CE8DF0A42E6E
:0202B400FE2228
:1002B600BC000BBE0029EF8DF084FFADF022E4CC2C
:1002C600F875F008EF2FFFEE33FEEC33FCEE9DECF5
:1002D600984005FCEE9DFE0FD5F0E9E4CEFD22ED3B
:1002E600F8F5F0EE8420D21CFEADF075F008EF2F85
:1002F600FFED33FD4007985006D5F0F222C398FD76
:050306000FD5F0EA2212
:00000001FF
