:10016400E4FD7F0112008F1200F28F12E51260F796
:0D017400FD7F0112008F7F6412014480EABC
:10018100AE071FEE600B007E027DC7DDFEDEFC8048
:01019100EF7E
:01019200224A
:1000F200E4F51320B1107F1412018130B1FD7F1499
:1001020012018175130120B0107F1412018130B0E9
:10011200FD7F1412018175130220B2107F141201A7
:100122008130B2FD7F1412018175130320B3107F59
:100132001412018130B3FD7F14120181751304AFD3
:0101420013A9
:010143002299
:0C0193000A083F065B4F666D7D077F6F1A
:10008F00EF14B4080050549000A475F003A4C58376
:10009F0025F0C583730200BC0200C00200C4020039
:1000AF00C80200CC0200D40200DC0200E4D2A4801B
:1000BF000ED2A48012D2A48016D2A4801AC2A4D2C7
:1000CF00A3D2A28016C2A4D2A3C2A2800EC2A4C27F
:1000DF00A3D2A28006C2A4C2A3C2A274082DF8E6BE
:0300EF00F5802277
:0501A000007FE3DFFE1B
:0101A5002237
:02014400A90709
:10014600E4FDFCE975F002A4FFC3ED9FEC95F050C9
:0D0156000CB2A51201A00DBD00010C80E649
:010163002279
:03000000020003F8
:0C000300787FE4F6D8FD75811302004AF6
:10000F00020164E493A3F8E493A34003F68001F2A2
:10001F0008DFF48029E493A3F85407240CC8C333F2
:10002F00C4540F4420C8834004F456800146F6DFC1
:10003F00E4800B0102040810204080900193E47EBD
:10004F00019360BCA3FF543F30E509541FFEE493B6
:10005F00A360010ECF54C025E060A840B8E493A37D
:10006F00FAE493A3F8E493A3C8C582C8CAC583CAA8
:10007F00F0A3C8C582C8CAC583CADFE9DEE780BE60
:01019F00005F
:00000001FF
