:100267001204D212051312000312014EE511FB7A94
:1002770000750C027D017F0112049FE512FB7A00D5
:10028700750C027D047F0112049FE513FB7A00754C
:100297000C027D077F0112049FE514FB7A00750CA1
:1002A700027D017F0212049FE515FB7A00750C029F
:1002B7007D047F0212049FE516FB7A00750C027D10
:1002C700077F0212049FE517FB7A00750C017D0A70
:0702D7007F0212049F8092D8
:0904F5000711190901023B37014E
:05051300C2B5C2B622D2
:02033200AD0715
:10033400E4F9430501D2B5FB7E007401A8030880EB
:1003440005C333CE33CED8F9FFEDF582EF558224C1
:10035400FF92B4C2B6D2B60BBB08DDE4FBD2B6C280
:10036400B630B40DA8037401088002C333D8FC422C
:0B037400010BBB08E8C2B5C2B4AF012A
:01037F00225B
:0302DE0025F0FD0B
:0202E100A9076B
:1002E300D2B5E4FB7E007401A803088005C333CEB6
:1002F30033CED8F9FFE9F582EF558224FF92B4D2C9
:10030300B6C2B60BBB08DDE4FB7E007401A803088C
:100313008005C333CE33CED8F9FFEDF582EF558296
:0E03230024FF92B4D2B6C2B60BBB08DDC2B541
:0103310022A9
:10000300E4FD7F8E1202E1E51175F00A84C454F019
:10001300FFE51175F00A84EF7F8C1202DEE512759D
:10002300F00A84C454F0FFE51275F00A84EF7F8868
:100033001202DEE51375F00A84C454F0FFE513756C
:10004300F00A84EF25F0FD7F861202E1E51475F0D6
:100053000A84C454F0FFE51475F00A84EF25F0FD1B
:100063007F841202E1E51575F00A84C454F0FFE5BC
:100073001575F00A84EF25F0FD7F821202E1E51683
:1000830075F00A84C454F0FFE51675F00A84EF2571
:10009300F0FD7F801202E1E51775F00A84C454F085
:1000A300FFE51775F00A84EF25F0FD7F8A1202E160
:0700B3007D807F8E0202E157
:10014E007F8C120332EFC4540F75F00AA4FEEF54E5
:10015E000F2EF5117F88120332EFC4540F75F00A7B
:10016E00A4FEEF540F2EF5127F86120332EFC45405
:10017E000F75F00AA4FEEF540F2EF5137F841203B1
:10018E0032EFC4540F75F00AA4FEEF540F2EF5147F
:10019E007F82120332EFC4540F75F00AA4FEEF549F
:1001AE000F2EF5157F80120332EFC4540F75F00A2F
:1001BE00A4FEEF540F2EF5167F8A120332EFC454AD
:0C01CE000F75F00AA4FEEF540F2EF51779
:0101DA002202
:0604E600C2A58F80D2A721
:0804EC007F027EEFDEFEDFFC63
:0104F40022E5
:0A04FF00C2A61204E6C2A70204EC34
:10048100CFCDCFCECCCE1200F97C007D0A1200F97F
:04049100ED2430FF27
:0A049500D2A61204E6C2A70204EC8E
:1004BC00AE07BE0104ED148006BE0209ED243F44D4
:0604CC0080FF1204FF2274
:1004D2007F381204FF7F0C1204FF7F061204FF7F95
:0404E200010204FF10
:0A050900AC031204BCAF0402049519
:06045E008B298A2A892B7C
:100464001204BCE4FDAB29AA2AA92B8D8275830052
:0C0474001200BAFF60061204950D80E92A
:010480002259
:0C042B007F0AEA24FFFDE434FFFC7E00A1
:080437008E0D8F0E8C0F8D104D
:10043F007F017E00E4FBEBC39510E50F6480F87439
:0E044F008098500AAC0DAD0E1200E70B80E84D
:01045D00227C
:04049F008A0A8B0B2F
:1004A3001204BCAA0CEAD39400400D12042BAC0A2C
:0804B300AD0B1204811A80ED6B
:0104BB00221E
:100380001204BCC3EA64809480400B7F2B12049556
:100390008A1D8B1E800E7F2D120495C3E49BF51ED3
:1003A000E49AF51DAA1CEAD39400400D12042BAC6C
:0903B0001DAD1E1204811A80ED3E
:0103B9002221
:0403BA008A218B22E7
:1003BE001204BCAA23EAD3940040297F1012042D04
:1003CE00AC21AD22CFCDCFCECCCE1200F9EF540F53
:1003DE00FEC3940AEE5004243080022437FF120428
:0403EE00951A80D10B
:0103F20022E8
:0403F3008A268B27A4
:1003F7001204BCAA28EAD394004028EA24FFFDE4AB
:1004070034FFFC7F027E00120437AC26AD27CFCD28
:10041700CFCECCCE1200F9EF54012430FF12049551
:030427001A80D266
:01042A0022AF
:030000000201DB1F
:0C01DB00787FE4F6D8FD75812D02022229
:1000BA00BB010CE58229F582E5833AF583E02250FB
:1000CA0006E92582F8E622BBFE06E92582F8E22245
:0D00DA00E58229F582E5833AF583E493225F
:1000E700EF8DF0A4A8F0CF8CF0A428CE8DF0A42E2D
:0200F700FE22E7
:1000F900BC000BBE0029EF8DF084FFADF022E4CCEB
:10010900F875F008EF2FFFEE33FEEC33FCEE9DECB3
:10011900984005FCEE9DFE0FD5F0E9E4CEFD22EDF9
:10012900F8F5F0EE8420D21CFEADF075F008EF2F43
:10013900FFED33FD4007985006D5F0F222C398FD34
:050149000FD5F0EA22D1
:1001E700020267E493A3F8E493A34003F68001F2C5
:1001F70008DFF48029E493A3F85407240CC8C33319
:10020700C4540F4420C8834004F456800146F6DFE7
:10021700E4800B01020408102040809004F5E47E7E
:10022700019360BCA3FF543F30E509541FFEE493DC
:10023700A360010ECF54C025E060A840B8E493A3A3
:10024700FAE493A3F8E493A3C8C582C8CAC583CACE
:10025700F0A3C8C582C8CAC583CADFE9DEE780BE86
:0104FE0000FD
:00000001FF
