:1001E50012037B12040D7518037B097A007D017FCC
:1001F500011203481203AEEF60FA1204138F2B129B
:1002050004168F2AE52BFB7A007518027D017F0203
:10021500120263E52AFB7A007518027D057F02123A
:04022500026380D020
:0B03D400D288C289D2A8D2AFD2B822D2
:06039F00C2A58F80D2A769
:0803A5007F027EEFDEFEDFFCAB
:0103AD00222D
:0A03EA00C2A612039FC2A70203A5DA
:10032A00CFCDCFCECCCE1201907C007D0A120190A7
:04033A00ED2430FF7F
:0A033E00D2A612039FC2A70203A576
:10036500AE07BE0104ED148006BE0209ED243F442C
:0603750080FF1203EA22E2
:10037B007F381203EA7F0C1203EA7F061203EA7F2F
:04038B00010203EA7E
:0A03F400AC03120365AF0402033EE0
:060307008B2C8A2D892ECB
:10030D00120365E4FDAB2CAA2DA92E8D82758300F9
:0C031D00120151FF600612033E0D80E942
:0103290022B1
:0C02D4007F0AEA24FFFDE434FFFC7E00FA
:0802E0008E198F1A8C1B8D1C76
:1002E8007F017E00E4FBEBC3951CE51B6480F8747A
:0E02F8008098500AAC19AD1A12017E0B80E8F6
:0103060022D4
:040348008A168B176F
:10034C00120365AA18EAD39400400D1202D4AC161D
:08035C00AD1712032A1A80ED0F
:010364002276
:10022900120365C3EA64809480400B7F2B12033E5E
:100239008A228B23800E7F2D12033EC3E49BF52374
:10024900E49AF522AA21EAD39400400D1202D4AC13
:0902590022AD2312032A1A80EDE4
:010262002279
:040263008A168B1755
:10026700120365AA18EAD3940040297F101202D618
:10027700AC16AD17CFCDCFCECCCE120190EF540F29
:10028700FEC3940AEE5004243080022437FF120381
:040297003E1A80D1BA
:01029B002240
:04029C008A268B27FC
:1002A000120365AA28EAD394004028EA24FFFDE45B
:1002B00034FFFC7F027E001202E0AC26AD27CFCDDA
:1002C000CFCECCCE120190EF54012430FF12033E6A
:0302D0001A80D2BF
:0102D3002208
:10038F005389F0438901C28CC28DE4F58AF58C2222
:0B03DF00AD07AC068C8AAF058F8C22A6
:0903FE00AF8CEFFEAD8AEDFF2289
:06040700EF24FF928C229D
:06040D0012038F0203D46C
:0D03AE00E50F6006E4F50F7F01227F0022BD
:0D03BB00E50D6006E4F50D7F01227F0022B4
:03041300AF0C2209
:03041600AF0B2207
:03000300020006F2
:10000600C0E0C0F0C083C082C0D075D000C000C0C0
:1000160001C002C003C004C005C006C00712040D1B
:10002600E508700CFFFE1203DF7F0112040780490A
:10003600E508640170491203FE8E098F0AE4FFFE8B
:100046001203DFD3E50A94C8E50994324010E50AA5
:1000560094B0E50994365006750802020136D3E5D8
:100066000A94FEE50994294010E50A94E6E5099408
:100076002D5006750D0102012E750801020136E5A7
:1000860008640260030201361203FE8E098F0AE439
:10009600FFFE1203DFD3E50A946CE5099402402BB8
:1000A600E50A9454E50994065021E50E13131354FA
:1000B6001F2410F8C000E6FFE50E5407FEF8740191
:1000C600088002C333D8FCF45F8034D3E50A94D6A3
:1000D600E50994064030E50A94BEE509940A5026DF
:1000E600E50E131313541F2410F8C000E6FFE50EA7
:1000F6005407FEF87401088002C333D8FCF44FD0CD
:1001060000F6050E8006750E00750801E50EC3940F
:1001160020401DE511F4B5100FE513F4B51209855D
:10012600100C85120C750F01E4FF12040775080008
:10013600D007D006D005D004D003D002D001D0001D
:0B014600D0D0D082D083D0F0D0E032C7
:030000000203C830
:0C03C800787FE4F6D8FD75812E0201E577
:10015100BB010CE58229F582E5833AF583E0225063
:1001610006E92582F8E622BBFE06E92582F8E222AD
:0D017100E58229F582E5833AF583E49322C7
:10017E00EF8DF0A4A8F0CF8CF0A428CE8DF0A42E95
:02018E00FE224F
:10019000BC000BBE0029EF8DF084FFADF022E4CC53
:1001A000F875F008EF2FFFEE33FEEC33FCEE9DEC1C
:1001B000984005FCEE9DFE0FD5F0E9E4CEFD22ED62
:1001C000F8F5F0EE8420D21CFEADF075F008EF2FAC
:1001D000FFED33FD4007985006D5F0F222C398FD9D
:0501E0000FD5F0EA223A
:00000001FF
