:0C013E000A083F065B4F666D7D077F6F6F
:10012D00AE071FEE600A7E027DEFDDFEDEFC80F085
:01013D00229F
:10008F00EF14B4080050549000A475F003A4C58376
:10009F0025F0C583730200BC0200C00200C4020039
:1000AF00C80200CC0200D40200DC0200E4D2A4801B
:1000BF000ED2A48012D2A48016D2A4801AC2A4D2C7
:1000CF00A3D2A28016C2A4D2A3C2A2800EC2A4C27F
:1000DF00A3D2A28006C2A4C2A3C2A274082DF8E6BE
:0B00EF00F5807F0112012DE4F5802256
:1000FA007D057F0112008F7D027F0212008FE4FDD1
:10010A007F0312008F7D017F0412008F7D037F051C
:10011A0012008F7D017F0612008F7D047F07120077
:03012A008F80CDF6
:03000000020003F8
:0C000300787FE4F6D8FD75811102004AF8
:10000F000200FAE493A3F8E493A34003F68001F20D
:10001F0008DFF48029E493A3F85407240CC8C333F2
:10002F00C4540F4420C8834004F456800146F6DFC1
:10003F00E4800B010204081020408090013EE47E12
:10004F00019360BCA3FF543F30E509541FFEE493B6
:10005F00A360010ECF54C025E060A840B8E493A37D
:10006F00FAE493A3F8E493A3C8C582C8CAC583CAA8
:10007F00F0A3C8C582C8CAC583CADFE9DEE780BE60
:01014A0000B4
:00000001FF
