:10006E0000000000000000003C4242240000407EE0
:10007E004858000024524A240000384C443A0000EC
:08008E0000000000000000006A
:10000300E4F509F50A1200D4E4F508E5082509909A
:10001300006E93FD7C00AF081200960508E508D337
:10002300940740E7050AE50AC3940A40DBE4F50AAE
:0E0033000509E509D3942040CFE4F50980CA01
:02004100AD0709
:10004300E4FB7E007480A803088006CEA2E713CEEB
:1000530013D8F8FFEDF582EF558224FF92B4D2B6A0
:0A006300C2B60BBB08DCD2B5C2B573
:01006D002270
:10009600AA07AF05120041AF02A8077480088002C4
:1000A600C313D8FCF4F5807F011200B67580FF22D9
:0500D400C2B6C2B52216
:1000B600AE071FEE600B007E027DC7DDFEDEFC8014
:0100C600EF4A
:0100C7002216
:030000000200C833
:0C00C800787FE4F6D8FD75810A02000381
:00000001FF
