:05009A0012000380FECE
:03002300020026B2
:10002600C0E0C0F0C083C082C0D075D000C000C0A0
:1000360001C002C003C004C005C006C00730980A4C
:100046008599A0AF9912001AC298D007D006D0059C
:10005600D004D003D002D001D000D0D0D082D0833B
:05006600D0F0D0E032F3
:1000030012007DC29FD29ED29CC299C29853873F51
:07001300D2AFD2ACC2AB2258
:08001A008F993099FDC2992273
:10007D0053890F438920C28FD28E758BFD758DFDEF
:01008D002250
:10006B00AE071FEE600B007E027DC7DDFEDEFC805F
:01007B00EF95
:01007C002261
:0300000002008E6D
:0C008E00787FE4F6D8FD75810902009A25
:00000001FF
