:100157001201BC1201058F13E51364017023051505
:10016700531503E5157002F512E515B40103751271
:1001770032E515B4020375124BE515B40303751286
:0A01870064AD157F0112009A80C9D3
:03000B000201915E
:10019100C0E0C0F0C0D0758AA4758CFF0514E514C9
:1001A10075F0648485F014E514C395125004D2905F
:0B01B1008002C290D0D0D0F0D0E0322D
:10010500E4F51620B1107F141201D330B1FD7F1430
:100115001201D375160120B0107F141201D330B02F
:10012500FD7F141201D375160220B2107F1412013F
:10013500D330B2FD7F141201D375160320B3107F9F
:10014500141201D330B3FD7F141201D3751604AF19
:010155001693
:010156002286
:1001BC005389F0438901D28CC28D758AA4758CFF4A
:0701CC00D2A9D2AFC2B92293
:0C01E5000A083F065B4F666D7D077F6FC8
:10009A00EF14B4080050549000AF75F003A4C58360
:1000AA0025F0C583730200C70200CB0200CF02000D
:1000BA00D30200D70200DF0200E70200EFD2A480D9
:1000CA000ED2A48012D2A48016D2A4801AC2A4D2BC
:1000DA00A3D2A28016C2A4D2A3C2A2800EC2A4C274
:1000EA00A3D2A28006C2A4C2A3C2A274082DF8E6B3
:0B00FA00F5807F011201D3E4F58022A5
:1001D300AE071FEE600B007E027DC7DDFEDEFC80F6
:0101E300EF2C
:0101E40022F8
:0300000002000EED
:0C000E00787FE4F6D8FD758116020055DD
:10001A00020157E493A3F8E493A34003F68001F2A4
:10002A0008DFF48029E493A3F85407240CC8C333E7
:10003A00C4540F4420C8834004F456800146F6DFB6
:10004A00E4800B01020408102040809001E5E47E60
:10005A00019360BCA3FF543F30E509541FFEE493AB
:10006A00A360010ECF54C025E060A840B8E493A372
:10007A00FAE493A3F8E493A3C8C582C8CAC583CA9D
:10008A00F0A3C8C582C8CAC583CADFE9DEE780BE55
:0101F100000D
:00000001FF
