:10041C00446174653A002F00436C6F636B3A003A89
:01042C0000CF
:1003B000020E00170214003B02120037020C07E97C
:0803C000020A000B0210001DEF
:10000E001203F61203C97BFF7A04791C7D017F016E
:10001E001203527BFF7A0479227D0A7F011203526A
:10002E007BFF7A0479227D0D7F011203527BFF7ACA
:10003E000479247D017F021203527BFF7A04792B0F
:10004E007D097F021203527BFF7A04792B7D0C7F90
:10005E0002120352751A04AB0DAA0C7D067F011213
:10006E000393751A02AB0BAA0A7D0B7F0112039341
:10007E00751A02AB11AA107D0E7F01120393751A29
:10008E0002AB0FAA0E7D077F02120393751A02AB05
:10009E0015AA147D0A7F02120393751A02AB13AAD6
:0A00AE00127D0D7F0212039380AA59
:03000B000200B838
:0400B800C0E0C0D014
:1000BC00758A66758CFC0509E50970020508C39400
:1000CC00E8E5089403407C7508007509000513E504
:1000DC001370020512943CE51294004066751200F0
:1000EC007513000515E51570020514943CE5149480
:1000FC00004050751400751500050FE50F700205D2
:10010C000E9418E50E9400403A750E00750F00051C
:10011C0011E51170020510941EE510940040247531
:10012C001000751101050BE50B7002050A940CE526
:10013C000A9400400E750A00750B01050DE50D7053
:03014C0002050C9D
:05014F00D0D0D0E03229
:10040A00AE071FEE600B007E027DC7DDFEDEFC80BC
:01041A00EFF2
:01041B0022BE
:06042D00C2A58F80D2A7DA
:080433007F027EEFDEFEDFFC1C
:01043B00229E
:0A043C00C2A612042DC2A702043369
:10037500CFCDCFCECCCE1201937C007D0A12019356
:04038500ED2430FF34
:0A038900D2A612042DC2A70204330D
:1003E000AE07BE0104ED148006BE0209ED243F44B1
:0603F00080FF12043C2214
:1003F6007F3812043C7F0C12043C7F0612043C7FBB
:040406000102043CAF
:0A044600AC031203E0AF04020389C7
:060352008B168A178918C2
:100358001203E0E4FDAB16AA17A9188D8275830075
:0C036800120154FF60061203890D80E9A9
:010374002266
:0C031F007F0AEA24FFFDE434FFFC7E00AE
:08032B008E1B8F1C8C1D8D1E22
:100333007F017E00E4FBEBC3951EE51D6480F8742A
:0E0343008098500AAC1BAD1C1201810B80E8A3
:010351002289
:040393008A188B1920
:100397001203E0AA1AEAD39400400D12031FAC1807
:0803A700AD191203751A80ED77
:0103AF00222B
:100274001203E0C3EA64809480400B7F2B1203894D
:100284008A248B25800E7F2D120389C3E49BF525D8
:10029400E49AF524AA23EAD39400400D12031FAC78
:0902A40024AD251203751A80ED4A
:0102AD00222E
:0402AE008A288B29E6
:1002B2001203E0AA2AEAD3940040297F10120321F4
:1002C200AC28AD29CFCDCFCECCCE120193EF540FB7
:1002D200FEC3940AEE5004243080022437FF120336
:0402E200891A80D124
:0102E60022F5
:0402E7008A2D8B2EA3
:1002EB001203E0AA2FEAD394004028EA24FFFDE48E
:1002FB0034FFFC7F027E0012032BAC2DAD2ECFCD35
:10030B00CFCECCCE120193EF54012430FF120389D0
:03031B001A80D273
:01031E0022BC
:1003C9005389F0438901D28CC28D758A66758CFC7C
:0703D900D2A9D2AFC2B92284
:030000000201E812
:0C01E800787FE4F6D8FD75812F02022F0D
:10015400BB010CE58229F582E5833AF583E0225060
:1001640006E92582F8E622BBFE06E92582F8E222AA
:0D017400E58229F582E5833AF583E49322C4
:10018100EF8DF0A4A8F0CF8CF0A428CE8DF0A42E92
:02019100FE224C
:10019300BC000BBE0029EF8DF084FFADF022E4CC50
:1001A300F875F008EF2FFFEE33FEEC33FCEE9DEC19
:1001B300984005FCEE9DFE0FD5F0E9E4CEFD22ED5F
:1001C300F8F5F0EE8420D21CFEADF075F008EF2FA9
:1001D300FFED33FD4007985006D5F0F222C398FD9A
:0501E3000FD5F0EA2237
:1001F40002000EE493A3F8E493A34003F68001F213
:1002040008DFF48029E493A3F85407240CC8C3330B
:10021400C4540F4420C8834004F456800146F6DFDA
:10022400E4800B01020408102040809003B0E47EB7
:10023400019360BCA3FF543F30E509541FFEE493CF
:10024400A360010ECF54C025E060A840B8E493A396
:10025400FAE493A3F8E493A3C8C582C8CAC583CAC1
:10026400F0A3C8C582C8CAC583CADFE9DEE780BE79
:0103C8000034
:00000001FF
